:100000000C949E000C945B160C945B160C945B167F
:100010000C945B160C945B160C945B160C945B169C
:100020000C945B160C945B160C945B160C945B168C
:100030000C945B160C94BB120C945B160C945B1620
:100040000C945B160C945B160C945B160C945B166C
:100050000C945B160C945B160C945B160C945B165C
:100060000C945B160C945B160C945B160C945B164C
:100070000C945B160C945B160C945B16EA05000658
:100080000006000600060006000600060006000640
:100090000006000600060006000600060006000630
:1000A0000006000600060006000600060006000620
:1000B00000060006000600060006000681045B0438
:1000C0008104000600060006000600060006000681
:1000D00000060006000600060006000600060006F0
:1000E00000066F0200060006000600060006000675
:1000F0000006000600066F02AF046F0281045B0475
:10010000810400066F0200060006000600060006D5
:100110006F02B605000600060F0500066F02000616
:1001200000066F02010001028001020109002CC6D5
:100130000109010D80010D010E00020511241FBEF1
:10014000CFEFD8E0DEBFCDBFE4E2F1E041E017C081
:10015000B591A59135912591059107FD0CC095911B
:100160008591EF01F92FE82F05900D92A217B307A3
:10017000D9F7FE0104C01D92A217B307E1F7EC33D3
:10018000F40731F70E9411100C947615F894FFCF04
:1001900020425554544F4E2050524553534544200D
:1001A00020200020425554544F4E2052454C45418A
:1001B000534544202000683A202564206D3A2025CC
:0B01C0006420733A202564200D0A0023
:1001CB000000803F000020410000C84200007A443C
:1001DB0000401C460050C347002474498096184BBE
:0801EB0020BCBE4C286B6E4ED7
:1001F300666E692B00666E69006E616E00666E69DD
:020203002D00CC
:0102050002F6
:100206002F923F924F925F926F927F928F929F9220
:10021600AF92BF92CF92DF92EF92FF920F931F930E
:10022600CF93DF93CDB7DEB76A970FB6F894DEBFEC
:100236000FBECDBF998788877D836C835F834E838E
:1002460009831A832B832701672B21F44FE556E197
:1002560059874887212C312CE4C48532A9F08101C5
:100266000F5F1F4F2E813F81A1016C817D81E88543
:10027600F985099589819A81AB810196A11D8983AA
:100286009A83AB831801CDC42F5F3F4F4F4F29830D
:100296003A834B83A12CB12C89819A81AB81FC01D5
:1002A6002491A7FD20812B32F1F028F4203229F188
:1002B600233269F136C02D3261F0203391F568940E
:1002C600A0F80196A11D89839A83AB8381E090E013
:1002D6002AC06894A1F80196A11D89839A83AB83ED
:1002E60081E090E020C06894A2F80196A11D898360
:1002F6009A83AB8381E090E016C06894A3F80196D8
:10030600A11D89839A83AB8381E090E00CC0689439
:10031600A4F80196A11D89839A83AB8381E090E0BE
:1003260002C080E090E0892B09F0B6CF89819A81DE
:10033600AB81FC012491A7FD208130ED320F3A30CC
:1003460038F4CE0101960E9489129B878A871EC0C7
:100356002A32D1F492012E5F3F4FF2014081518142
:1003660055234CF46894A1F866277727641B750B10
:100376007B876A8702C05B874A870196A11D8983AE
:100386009A83AB83290102C01B861A8689819A81CA
:10039600AB81FC012491A7FD20812E3259F568948A
:1003A600B2F80196A11D89839A83AB83FC0124913F
:1003B600A7FD208130ED320F3A3038F4CE01019698
:1003C6000E9489129D878C871AC02A32B1F4920145
:1003D6002E5F3F4FF201C080D180DD2014F4C12C86
:1003E600D12CDD86CC860196A11D89839A83AB83A9
:1003F600290105C01D861C8602C01D861C868981B2
:100406009A81AB81FC012491A7FD20812C3659F0FD
:1004160028F42836E9F02A36C1F14AC0243769F1B2
:100426002A37D9F145C0950131600196A11D89830E
:100436009A83AB83FC014491A7FD40814C36A9F514
:10044600F3E0BF2A0196A11D89839A83AB8330C04E
:10045600950120680196A11D89839A83AB83FC01CF
:100466004491A7FD4081483611F520ECA22A019659
:10047600A11D89839A83AB831BC06894B1F801964A
:10048600A11D89839A83AB8313C06894B1F8019642
:10049600A11D89839A83AB830BC06894B1F801963A
:1004A600A11D89839A83AB8303C0590101C05901F9
:1004B60029818A819B81E22FF82F849197FD808183
:1004C600482F50E0FA01B597E435F10508F095C3D9
:1004D600E25CFF4F0C942316883759F0883561F09B
:1004E6008F3669F0823671F0E894A4F82AE030E09D
:1004F6000BC020E130E008C020E130E005C028E074
:1005060030E002C022E030E0883511F46894A5F8A6
:10051600893621F0843611F043EFA422B2FE02C0E0
:10052600E894A0F8893619F0843609F00EC1B1FEB8
:1005360085C0B201685F7F4F798F688FD201FC91C9
:100546001196EC9111971296BC91BA8FD20113961F
:100556001C9113971496FC9014971596EC9015978A
:1005660016967C90169717969C90A90160E070E00D
:1005760080E090E0DC012E875F87688B798B8A8B21
:100586009B8BAC8BBD8B2F2F3E2F4A8D512F6F2D02
:100596007E2D872D992D0FE30E94EC13822EBF2FFF
:1005A600EF8BCA8CD12E4F2C5E2C072D692C2F2F4A
:1005B6003E2F4C2D512F6F2D7E2D872D992DA0E08E
:1005C6000E94491554F40E940415B22F3F8BC42E85
:1005D600D52E462E572E082F692EBF92AF925B85D9
:1005E6005F936A856F937D857F938C858F939D89B5
:1005F6009F93AC89AF93EB89EF93FA89FF9329898F
:100606002F9348894F935F855F936E856F93AB2ECB
:10061600BF88E42CF52C162D2E813F81A1016C811B
:100626007D81888599850E94820B1C010FB6F894FE
:10063600DEBF0FBECDBF488C598C31C1B0FE3FC066
:10064600D2011496BF87AE87F20180819181A28183
:10065600B3812901612C712CAC01BD01442777FDC2
:1006660043955527662777277C018D01BB233CF4EC
:10067600EE24FF248701E81AF90A0A0B1B0BBF9226
:10068600AF92FB85FF932A852F938D858F939C854B
:100696009F9353014201C42E2E813F81A1016C819B
:1006A6007D81888599850E947F0D1C010F900F9092
:1006B6000F900F900F900F904E845F84F0C0A6FEAF
:1006C60008C0D2018D919C919927F20132962F0193
:1006D6000FC0A7FE07C0D2018D919C91F201329600
:1006E6002F0106C0D2018D919C91F20132962F0105
:1006F600A90160E070E0C92ECC1CCC24CC1C7C0186
:10070600992324F4EE24FF24E81AF90A00E010E005
:10071600BF92AF92FB85FF932A852F938D858F938A
:100726009C859F934A015B012E813F81A1016C81CB
:100736007D81888599850E947F0D1C010F900F9001
:100746000F900F900F900F90AAC0B1FE40C03201DB
:10075600A8E06A0E711CD201FC911196EC911197DA
:100766001296CC9012971396DC9013971496EC90F1
:1007760014971596FC90159716960C911697179642
:100786001C91BF92AF92BB85BF93AA85AF93BD85DF
:10079600BF93AC85AF931F921F921F921F921F9219
:1007A6001F923F932F93812CAF2EBE2E2E813F8119
:1007B600A1016C817D81888599850E94820B1C012F
:1007C6000FB6F894DEBF0FBECDBF230168C0B0FEE2
:1007D6002BC0C901A0E0B0E03201F4E06F0E711C3D
:1007E600F201E080F18002811381BF92AF92FB8516
:1007F600FF932A852F934D854F935C855F934C011C
:100806005D01C12C2E813F81A1016C817D8188858E
:1008160099850E947F0D1C010F900F900F900F90ED
:100826000F900F9023013BC0A6FE08C0D201ED90A9
:10083600FC90FF24F20132962F010FC0A7FE07C0DD
:10084600D201ED90FC90F20132962F0106C0D20142
:10085600ED90FC90F20132962F01C901A0E0B0E0C4
:1008660000E010E0BF92AF92FB85FF932A852F939D
:100876004D854F935C855F934C015D01C12C2E81A4
:100886003F81A1016C817D81888599850E947F0DBC
:100896001C010F900F900F900F900F900F90898171
:1008A6009A81AB810196A11D89839A83AB83B9C1D5
:1008B600863411F46894A5F8320164E0660E711C62
:1008C600D201ED90FD900D911C914501AA84BB8447
:1008D600CC84DD842E813F81A1016C817D81888558
:1008E60099850E94FD081C0189819A81AB81019638
:1008F600A11D89839A83AB83230193C1873611F0A7
:10090600873411F46894B3F8853411F0873411F400
:100916006894A5F83201B4E06B0E711CF201E08018
:10092600F180028113814501AA84BB84CC84DD84D5
:100936002E813F81A1016C817D81888599850E94E8
:1009460048061C0189819A81AB810196A11D898384
:100956009A83AB83230165C16501F2E0CF22DD24D2
:10096600A1FE11C001E010E01CC071012FEFE21AD8
:10097600F20A9301A1016C817D8180E2F40109955F
:10098600C801170108C081E090E0AA84BB8488846E
:1009960099846E807F808C010F5F1F4F8A159B059F
:1009A60020F37101FFEFEF1AFF0A520122E0A20EB7
:1009B600B11C2E813F81A1016C817D81D2018C9178
:1009C600E885F9850995CD2879F41BC04701FFEF25
:1009D6008F1A9F0A9101A7016C817D8180E2F20145
:1009E60009958601740106C06A847B84488459840B
:1009F6002E803F806801FFEFCF1ADF0A0615170524
:100A060028F389819A81AB810196A11D89839A83F6
:100A1600AB831701250105C1A2014E5F5F4F5F87BA
:100A26004E87D201CD90DC90A60160E83A01862E71
:100A3600EC85FD85EF2B19F48FEF9FEF02C08C85B7
:100A46009D856A01E62E05C0FFEFCF1ADF0AEF0A81
:100A5600C901F6012491E7FC2081222329F09C019B
:100A660021503109892B81F72E2D8601041B150B88
:100A76007501EE2424E0F222B2FE06C04C855D85A7
:100A86004017510708F48A01250152E045225524F2
:100A9600A1FE12C0CC84DD842EC051016FEFA61AD0
:100AA600B60A2E813F81A1016C817D8180E2E885B5
:100AB600F9850995860115016801FFEFCF1ADF0A4E
:100AC6004A855B850417150740F38601CC84DD84CF
:100AD60012C0690151015FEFA51AB50A6FEF661AD8
:100AE600760A860A2E813F81A1016C817D81E88587
:100AF600F98509951501F301849187FC8081882386
:100B060041F0E114F10431F3960121503109CD2869
:100B160001F7452871F41CC06101FFEFCF1ADF0A07
:100B26009301A101B20180E2F40109958701160142
:100B360008C0AA84BB84888499844C805D806E80BA
:100B46007F807801FFEFEF1AFF0A0A151B0520F3D5
:100B560089819A81AB810196A11D89839A83AB8392
:100B66004E845F845EC021E2A22A320142E0640E16
:100B7600711CD201ED90FC9000E010E0BF92AF92A4
:100B86001F9284E08F93BD85BF93EC85EF93812CF4
:100B9600912C5401689484F8C12C2E813F81A101C7
:100BA6006C817D81888599850E947F0D1C018981D4
:100BB6009A81AB810196A11D89839A83AB830F909D
:100BC6000F900F900F900F900F9023012AC0810174
:100BD6000F5F1F4F2E813F81A1016C817D8185E2D0
:100BE600E885F985099589819A81AB810196A11DD0
:100BF60089839A83AB83180114C081010F5F1F4F4D
:100C06002E813F81A1016C817D81E885F985099559
:100C160089819A81AB810196A11D89839A83AB83D1
:100C2600180129813A814B81F901849147FD808120
:100C3600811113CB4E815F812416350618F0415081
:100C4600510901C0A1012E813F816C817D8180E027
:100C5600E885F9850995C1016A960FB6F894DEBF55
:100C66000FBECDBFDF91CF911F910F91FF90EF90F7
:100C7600DF90CF90BF90AF909F908F907F906F90B6
:0A0C86005F904F903F902F9008956B
:100C90002F923F924F925F926F927F928F929F928C
:100CA000AF92BF92CF92DF92EF92FF920F931F937A
:100CB000CF93DF93CDB7DEB7A4970FB6F894DEBF1E
:100CC0000FBECDBF9A8B898B7C8B6B8B1A013E8BB1
:100CD0002D8BE986FA860B871C87D88ECF8A250153
:100CE0003401A8019701C801B7010E94291681119A
:100CF00014C02FEF3FEF4FE75FE7C801B7010E9435
:100D00002E16181654F02FEF3FEF4FE75FEFC80194
:100D1000B7010E942916882394F443015201CF8819
:100D2000D88CE984FA840B851C852D893E89A10124
:100D30006B897C8989899A890E94FD0845C220E0D7
:100D400030E0A90169857A858B859C850E942916EA
:100D5000882354F489859A85AB85BC85B058898FE2
:100D60009A8FAB8FBC8F08C089859A85AB85BC856F
:100D7000898F9A8FAB8FBC8FD301AA27B470BCA385
:100D8000ABA372FC04C0E6E0F0E0F88FEF8B898D36
:100D90009A8DAB8DBC8D89839A83AB83BC83B98DCF
:100DA000AA81FB81EC816D817E812B2F3A2F4F2F01
:100DB0005E2F8F81988504E30E94EC13822E932E80
:100DC000B40177706F5F7340B983072E000C880BF6
:100DD000990B0E941C122BE930E24AE95EE30E9463
:100DE0004B1624E431E544E35EE30E94EF156B010A
:100DF0007C0169817A818B819C8120E030E040EC2C
:100E00005FE30E94EE152BE33DE344E95EE30E94BD
:100E10004B169B01AC01C701B6010E94EF150E9461
:100E2000F5156F8F78A389A39AA3AF8DB8A1BE8F54
:100E3000AD8FBD01BB0F880B990B0E941C124B019B
:100E40005C0128E73AE944E550E40E944B1620E0B3
:100E500030E040E05FE30E94EF150E94F5156B0162
:100E60007C012EE83DE543E150E4C501B4010E9458
:100E70004B164B015C01B6010D2C000C880B990B35
:100E80000E941C1228E132E741E35FE30E944B1607
:100E90009B01AC01C501B4010E94EE154B015C0140
:100EA0009B01AC010E944B166D877E878F87988BC4
:100EB000F1E0CF1AFCEFDF0A9D2D990F990B2C2D35
:100EC0003D2D492F592F692F792F892F0E943A14D0
:100ED00029833A834B835C83A5019401C501B40146
:100EE0000E94EF156B017C01A501940160E070E0A8
:100EF00080E090E40E94EE154B015C0120E030E0C0
:100F000040E651E46D857E858F8598890E9447165D
:100F100020E030E040E251E40E94EF159B01AC017B
:100F20006D857E858F8598890E94471620E030E088
:100F300040EC50E40E94EF159B01AC016D857E856D
:100F40008F8598890E9447169B01AC01C501B401A9
:100F50000E94EF159B01AC01C701B6010E94471624
:100F600020E030E040E85FE30E94EF1529813A81FC
:100F70004B815C810E944B166B017C0169837A83F3
:100F80008B839C839B01AC01698D7A8D8B8D9C8DAD
:100F90000E942916882394F42F8D38A121503109FD
:100FA0003E8F2D8F20E030E040E251E4C701B601D2
:100FB0000E94471669837A838B839C838D8D9E8DD7
:100FC0008D599F4F873C910528F484E090E09E87DF
:100FD0008D8704C0A5E0B0E0BE87AD8773FE3BC03F
:100FE00027E137EB41ED58E3698D7A8D8B8D9C8D30
:100FF0000E942E16882324F120E034E244E759E4CD
:10100000698D7A8D8B8D9C8D0E9429168823C4F45E
:10101000ED8DFE8D2F89388DE217F30744F46901B9
:10102000CE1ADF0AC6010197988F8F8B02C0188EE7
:101030001F8A689472F81E861D861E8E1D8E0BC038
:10104000AF89B88D109739F0EBA1FCA1EF2B19F007
:101050001197B88FAF8B2D853E852415350520F46B
:101060005201A21AB30A02C0A12CB12CC301827092
:10107000992798A38F8F61FE06C0AD85BE85AB2BE7
:1010800011F0A12CB12CED8DFE8DEF2B71F029818B
:101090003A814B815C81698D7A8D8B8D9C8D0E940C
:1010A0004716698F7A8F8B8F9C8F4301E89493F852
:1010B00020E030E0A90169857A858B859C850E94B6
:1010C000291688234CF4E98CFA8C0B8D1C8D17FBA8
:1010D000109517F9109504C0E98CFA8C0B8D1C8DB6
:1010E000CF88D88C2D893E89A1016B897C8989891B
:1010F0009A890E94FD08AC012D853E85232B09F4B9
:1011000062C001969A87898765FE02C085E401C0A6
:1011100085E62D893E896B897C89E989FA8909955B
:101120006D847E84F1E06F1A7108CE8CCC1CCC24C7
:10113000CC1CED8CFE8CFF201CF4F194E194F108A2
:101140000F2C000C000B110B1F9285E08F937F92E8
:101150006F921F921F920F2EFAE08F2E912CA12CCE
:10116000B12CF02D2D893E8949855A856B897C8962
:1011700089899A890E947F0DAC010F900F900F9082
:101180000F900F900F902F8D38A1232B69F4952F7E
:101190001BC05A013FEFA31AB30A9701B80180E2BE
:1011A000F6010995A50106C0C988DA880B891C8952
:1011B000ED88FE88CA01821993098415950548F3C4
:1011C000842F952F01C0952FA4960FB6F894DEBFFB
:1011D0000FBECDBFDF91CF911F910F91FF90EF9088
:1011E000DF90CF90BF90AF909F908F907F906F9047
:0A11F0005F904F903F902F900895FC
:1011FA002F923F924F925F926F927F928F929F921D
:10120A00AF92BF92CF92DF92EF92FF920F931F930A
:10121A00CF93DF93CDB7DEB7E9970FB6F894DEBF69
:10122A000FBECDBF9EA38DA378A76FA35AA749A7C8
:10123A003CA72BA7E9A2FAA20BA31CA31601A8019B
:10124A009701C801B7010E9429168823A9F00F2E19
:10125A00F3E0CF2ED12CF02D0CEFE02E01E0F02E92
:10126A0000E02BA53CA549A55AA56FA178A58DA19B
:10127A009EA10E94250E28C22FEF3FEF4FE75FEF96
:10128A0069A17AA18BA19CA10E9429168823A4F4A2
:10129A006894CC24C2F8D12C00E0E02E02E0F02EB3
:1012AA0000E02BA53CA549A55AA56FA178A58DA15B
:1012BA009EA10E94250E08C22FEF3FEF4FE75FE77E
:1012CA0069A17AA18BA19CA10E942E1618163CF541
:1012DA00C4018470992782FE05C06894CC24C2F8A0
:1012EA00D12C05C00F2EF3E0CF2ED12CF02D892B57
:1012FA0031F003EFE02E01E0F02E00E005C008EF28
:10130A00E02E01E0F02E00E02BA53CA549A55AA548
:10131A006FA178A58DA19EA10E94250ED5C128E2B4
:10132A003BE64EE65EE469A17AA18BA19CA10E94EC
:10133A002E16181664F028E23BE64EE65EEC69A12A
:10134A007AA18BA19CA10E942916882384F46101A9
:10135A00E9A0FAA00BA11CA12BA53CA549A55AA559
:10136A006FA178A58DA19EA10E944806ADC120E07B
:10137A0030E0A90169A17AA18BA19CA10E9429163A
:10138A00882384F429A13AA14BA15CA160E070E012
:10139A00CB010E94EE1569A37AA38BA39CA321E03B
:1013AA0029AF01C019AE92FC05C00F2EF6E02F2E10
:1013BA00312CF02D00E010E00DC0E1E0F0E0EC0F80
:1013CA00FD1FE00FF11F80E3808331E0231A31080B
:1013DA000F5F1F4F0032110520F48AE028163104EE
:1013EA0060F769A17AA18BA19CA10E94F51569AB4E
:1013FA007AAB8BAB9CAB69A87AA8B301072C000C1B
:10140A00880B990B0E941C129B01AC0169A17AA15D
:10141A008BA19CA10E94EE156B017C01C101880F72
:10142A00991F880F991F092E000CAA0B85539E4FEE
:10143A00AF4FFC015A2F0E943D156DAB7EAB8FABAF
:10144A0098AF9B01AC01C701B6010E944B166DA76C
:10145A007EA78FA798AB0E94EB126B017C010E94BA
:10146A001A129B01AC016DA57EA58FA598A90E94B1
:10147A00EE156DA77EA78FA798AB20E030E040E07D
:10148A005FE30E942E161816D4F42FEFC21AD20A5E
:10149A00E20AF20AC701B6010E941A129B01AC01C4
:1014AA006DA97EA98FA998AD0E9429161816FCF07D
:1014BA003FEF631A730AC12CD12C760118C020E0C1
:1014CA0030E040E05FE36DA57EA58FA598A90E9454
:1014DA002916882364F0C114D104E104F10411F03F
:1014EA00C0FE05C08FEFC81AD80AE80AF80A211404
:1014FA00310409F04BC0B301072C000C880B990B7F
:10150A000E941C129B01AC0169A17AA18BA19CA12A
:10151A000E94EE156B017C0120E030E040E05FE3C1
:10152A000E94291688235CF420E030E040E05FE363
:10153A00C701B6010E942E1618160CF063C060FE91
:10154A0061C02FEF621A720A5DC031E0231A3108B6
:10155A0028018FEF481A580AC701B6012AE030E07D
:10156A0040E050E00E94A813605DE1E0F0E0EC0F7B
:10157A00FD1FE00FF11F6083C22ED32EE42EF52E3D
:10158A00C114D104E104F10429F0820100321105E9
:10159A00E0F20DC082010BC0E1E0F0E0EC0FFD1FAC
:1015AA00E00FF11F20E320831C010F5F1F4F003261
:1015BA00110520F4C1010197232871F700321105A2
:1015CA0008F5E1E0F0E0EC0FFD1FE00FF11F8EE2FD
:1015DA0080830F5F1F4F16C098012F5F3F4FC301D3
:1015EA006AE070E00E949514805DE1E0F0E0EC0FA3
:1015FA00FD1FE00FF11F8083662E772E61147104A0
:10160A0029F089010032110538F301C0890181FCF2
:10161A0021C080FE1FC0A114B104B1F029AD21116F
:10162A0005C0C4018C709927892B71F031E0A31A87
:10163A00B1080AC0E1E0F0E0EC0FFD1FE00FF11F76
:10164A0080E380830F5F1F4F0A151B0518F40032D1
:10165A00110580F30032110538F589AD882359F058
:10166A00E1E0F0E0EC0FFD1FE00FF11F8DE2808357
:10167A000F5F1F4F19C082FE0BC0E1E0F0E0EC0FD4
:10168A00FD1FE00FF11F8BE280830F5F1F4F0CC01D
:10169A0083FE0AC0E1E0F0E0EC0FFD1FE00FF11F4E
:1016AA0080E280830F5F1F4FCE010196A0E8680198
:1016BA007C010A2F2BA53CA549A55AA56FA178A59F
:1016CA008DA19EA10E94250EE9960FB6F894DEBF61
:1016DA000FBECDBFDF91CF911F910F91FF90EF9079
:1016EA00DF90CF90BF90AF909F908F907F906F9038
:0A16FA005F904F903F902F900895ED
:101704002F923F924F925F926F927F928F929F920D
:10171400AF92BF92CF92DF92EF92FF920F931F93FB
:10172400CF93DF93CDB7DEB7E7970FB6F894DEBF5C
:101734000FBECDBF9EA78DA778AB6FA75AAB49ABA1
:101744003CAB2BABA9A2BAA2CBA2DCA25E2C4F2C41
:10175400302E212E8DAA2D968FAD2D978DA32E96EA
:101764009FAD2E979EA32F968FAD2F978FA3609634
:101774009FAD609798A761968FAD619789A7629690
:101784009FAD62979AA763968FAD63978BA7649674
:101794009FAD64979CA767968FAD67978EAB68964D
:1017A4009FAD68979FAB2A2D3B2D4C2D5D2D6E2D43
:1017B4007F2D802F912FA0E00E94491549F46A964D
:1017C4008EAD9FAD6A978F7E6A969FAF8EAF6A97F4
:1017D4006A968EAD9FAD6A9792FF14C029A13AA173
:1017E4004BA15CA1652D742D832D922DA0E00E9448
:1017F400491509F45FC0812C912C352C242C492ED9
:10180400582E08C0812C912C832D352C922D242CFC
:10181400492E582EADA0BEA0CFA0D8A4E9A4FAA406
:101824000BA51CA529A13AA14BA15CA1632D722D86
:10183400852D942D0E94221534019FEF691A790A8F
:101844002A3010F4205D0AC069968FAD699785FF30
:1018540002C081E401C081E6280F2A50E1E0F0E0F3
:10186400EC0FFD1FE80DF91D2083ADA0BEA0CFA095
:10187400D8A4E9A4FAA40BA51CA529A13AA14BA1BB
:101884005CA1632D722D852D942D0E94241529A30E
:101894003AA34BA35CA3362E272E582E492EA0E044
:1018A4000E94491549F0430190E26916710408F455
:1018B400B1CF02C0612C712C6A968FAD6A978F9359
:1018C40069969FAD69979F938FA98F939EA99F93C4
:1018D40066968EAC9FAC6697ADA0BEA0CDA87301F2
:1018E4008E010F5F1F4F2BA93CA949A95AA96FA5C7
:1018F40078A98DA59EA50E949C0C0F900F900F9027
:101904000F90E7960FB6F894DEBF0FBECDBFDF9100
:10191400CF911F910F91FF90EF90DF90CF90BF90E8
:10192400AF909F908F907F906F905F904F903F907B
:041934002F90089553
:101938002F923F924F925F926F927F928F929F92D7
:10194800AF92BF92CF92DF92EF92FF920F931F93C5
:10195800CF93DF93CDB7DEB72C013B011901C70147
:10196800AD89BE896F89788D61FD28C0109789F08F
:1019780060FF0FC0C11005C0FB01EC70FF27EF2B03
:1019880041F0119706C0F801E80FF91F20E3208302
:1019980001968815990550F480329105A0F306C088
:1019A800F801E80FF91F20E32083019660FF06C0C5
:1019B8008A179B0718F48032910590F364FF58C08A
:1019C80072FD14C0009791F08815990519F08A17CF
:1019D8009B0761F4FC01319731F020E1A216B104B4
:1019E80021F4029703C0CF0101C0CF0120E1A21664
:1019F800B10479F465FD0DC08032910550F4F80109
:101A0800E80FF91F0F2EF8E7FF2EF02DF082019650
:101A180023C020E1A216B10479F465FF0DC080321D
:101A2800910550F4F801E80FF91F0F2EF8E5FF2E85
:101A3800F02DF082019610C022E0A216B10461F4E4
:101A48008032910548F4F801E80FF91F0F2EF2E6ED
:101A5800FF2EF02DF08201968032910548F4F801AE
:101A6800E80FF91F0F2EF0E3FF2EF02DF0820196FC
:101A78008032910510F5CC2051F0F801E80FF91FDC
:101A88000F2EFDE2FF2EF02DF082019616C062FFA8
:101A98000AC0F801E80FF91F0F2EFBE2FF2EF02D08
:101AA800F08201960AC063FF08C0F801E80FF91F29
:101AB8006894FF24F5F8F0820196780120E8022F57
:101AC8004B015D016C019101B301C2010E94250E19
:101AD800DF91CF911F910F91FF90EF90DF90CF9002
:101AE800BF90AF909F908F907F906F905F904F9036
:061AF8003F902F900895BD
:101AFE002F923F924F925F926F927F928F929F9210
:101B0E00AF92BF92CF92DF92EF92FF920F931F93FD
:101B1E00CF93DF93CDB7DEB7A9970FB6F894DEBF9C
:101B2E000FBECDBF9AA389A37CA36BA35EA34DA3C7
:101B3E0038A72FA317012801C9A6650154012196C4
:101B4E009FAC219722968FAC22972496EEACFFACD9
:101B5E002497211431044104510411F4E894E4F85B
:101B6E00F2FE08C0211431044104510499F100E041
:101B7E0010E002C000E010E0C201B101A601950123
:101B8E000E94A81338018FEF681A780A6A3010F491
:101B9E00605D07C0E5FE02C081E401C081E6680F0A
:101BAE006A50E1E0F0E0EC0FFD1FE00FF11F6083E3
:101BBE00C201B101A60195010E94A81319012A01C3
:101BCE00232B242B252B41F0830180E26816710410
:101BDE0098F202C0612C712CFF92EF928F929F921D
:101BEE008EAC9FACC9A473018E010F5F1F4F2FA146
:101BFE0038A54DA15EA16BA17CA189A19AA10E94DD
:101C0E009C0C0F900F900F900F90A9960FB6F89412
:101C1E00DEBF0FBECDBFDF91CF911F910F91FF9011
:101C2E00EF90DF90CF90BF90AF909F908F907F906E
:0C1C3E006F905F904F903F902F900895A2
:101C4A002F923F924F926F927F928F929F92AF9272
:101C5A00BF92CF92DF92EF92FF920F931F93CF938F
:101C6A00DF9300D000D000D0CDB7DEB73C017A8335
:101C7A0069835E834D833C832B831701402EC40105
:101C8A0022E08222992481FD03C080FF13C031C063
:101C9A004D815E812EC08A010F5F1F4F2B813C81CF
:101CAA0069817A8180E2F3010995FFEFEF1AFF0A51
:101CBA00A80103C076014D815E81EA14FB0458F342
:101CCA0018C08A010F5F1F4F21E0C21AD108A42D44
:101CDA00C1018C0D9D1DA11DD7FCAA952B813C81AC
:101CEA0069817A81FC018491A7FD8081F3010995BC
:101CFA00A801C114D10429F7892861F413C08A0103
:101D0A000F5F1F4F2B813C8169817A8180E2F30149
:101D1A000995A801CA012D813E81821B930B8A1560
:101D2A009B0568F3CA0126960FB6F894DEBF0FBE6C
:101D3A00CDBFDF91CF911F910F91FF90EF90DF9070
:101D4A00CF90BF90AF909F908F907F906F904F9061
:061D5A003F902F90089558
:101D6000BF92CF92DF92EF92FF920F931F93CF9388
:101D7000DF9361157105810509F470C06B01E82ED0
:101D8000FB018491E7FC80810E94BD14D82FDF778E
:101D9000AE2DC6010196A11DFC018491A7FD808195
:101DA0000E94BD14C82FCF77AE2DC6010296A11D8B
:101DB000FC018491A7FD80810E94BD14182F1F7320
:101DC000AE2DC6010396A11DFC018491A7FD808163
:101DD0000E94BD148770F82EAE2DC6010496A11D79
:101DE000FC018491A7FD80810E94BD148F73B82EE1
:101DF000AE2DC6010596A11DFC018491A7FD808131
:101E00000E94BD14082F0F7186E0C80ED11CE11C82
:101E1000F6018491E7FC80810E94BD14E82E0E94A7
:101E2000BC1580ED0E94951580E00E9495158D2FC0
:101E30000E9495158C2F0E949515812F0E94951553
:101E40008F2D0E9495158B2D0E949515802F0E9435
:101E500095158E2D0E9495150E943316DF91CF9116
:101E60001F910F91FF90EF90DF90CF90BF9008955A
:101E700010C00E94031658F00E94FC1540F029F48F
:101E80005F3F29F00C941D1651110C940B160C9405
:101E900058160E94861368F39923B1F3552391F3E2
:101EA000951B550BBB27AA2762177307840738F0C9
:101EB0009F5F5F4F220F331F441FAA1FA9F335D026
:101EC0000E2E3AF0E0E832D091505040E695001CDA
:101ED000CAF72BD0FE2F29D0660F771F881FBB1F94
:101EE000261737074807AB07B0E809F0BB0B802D72
:101EF000BF01FF2793585F4F3AF09E3F510578F09E
:101F00000C941D160C940B165F3FE4F3983ED4F32B
:101F1000869577956795B795F7959F5FC9F7880F71
:101F2000911D9695879597F90895E1E0660F771FC3
:101F3000881FBB1F621773078407BA0720F0621B54
:0E1F4000730B840BBA0BEE1F88F7E095089523
:101F4E000FC00E94FC1538F00E94031620F0952356
:101F5E0011F00C941D160C94581611240C940B169B
:101F6E000E94861370F3959FC1F3950F50E0551F95
:101F7E00629FF001729FBB27F00DB11D639FAA27D0
:101F8E00F00DB11DAA1F649F6627B00DA11D661F1F
:101F9E00829F2227B00DA11D621F739FB00DA11D40
:101FAE00621F839FA00D611D221F749F3327A00DFA
:101FBE00611D231F849F600D211D822F762F6A2F96
:101FCE0011249F5750409AF0F1F088234AF0EE0FFB
:101FDE00FF1FBB1F661F771F881F91505040A9F728
:101FEE009E3F510580F00C941D160C940B165F3F0E
:101FFE00E4F3983ED4F3869577956795B795F79564
:10200E00E7959F5FC1F7FE2B880F911D96958795DB
:04201E0097F9089591
:10202200CF93DF93CDB7DEB765970FB6F894DEBFD7
:102032000FBECDBF87E0E2E0F1E0DE011F96019026
:102042000D928A95E1F7CE010F960E9414150E9417
:102052005515CE0101960E944F160E94C4150E948A
:102062001A1378940E9408140E94DD110E943F16F0
:102072000E948D110E948115811109C060E00E94A9
:10208200B31560E971E080E00E94211409C060E0AC
:1020920080E00E94B31563EA71E080E00E9421149F
:1020A200CE0108960E944F1688859981891701F3FF
:1020B20029859A851F928F931F922F931F929F9328
:1020C20086EB91E0A0E0AF939F938F930E94CA1397
:1020D20087E0FE013896DE01119601900D928A95F5
:0E20E200E1F70FB6F894DEBF0FBECDBFC1CF41
:1020F00011C00E94FC1538F00E94031620F039F43C
:102100009F3F19F426F40C9458160EF4E095E7FB63
:102110000C941D16E92F0E94861358F3BA17620714
:1021200073078407950720F079F4A6F50C940A1636
:102130000EF4E0950B2EBA2FA02D0B01B9019001E2
:102140000C01CA01A0011124FF27591B99F0593F26
:1021500050F4503E68F11A16F040A22F232F342F6E
:102160004427585FF3CF469537952795A795F040BC
:102170005395C9F77EF41F16BA0B620B730B840BD1
:10218000BAF09150A1F0FF0FBB1F661F771F881F89
:10219000C2F70EC0BA0F621F731F841F48F48795E1
:1021A00077956795B795F7959E3F08F0B0CF9395D3
:0E21B000880F08F09927EE0F979587950895F0
:1021BE00BF92CF92DF92EF92FF920F931F93CF9326
:1021CE00DF93009709F447C0EC010E94BC1580ED27
:1021DE000E94951580E00E9495150E94BC1581ED18
:1021EE000E9495150E949F15B82E0E949F15C82E0D
:1021FE000E949F15D82E0E949F15E82E0E949F15B3
:10220E00F82E0E949F15082F0E94A915182F0E94C4
:10221E0033168B2D8F770E946B1588838C2D8F77BD
:10222E000E946B1589838D2D8F730E946B158A8387
:10223E008E2D87700E946B158B838F2D8F730E944E
:10224E006B158C83802F8F710E946B158D83812F60
:10225E000E946B158E83DF91CF911F910F91FF908E
:0A226E00EF90DF90CF90BF9008952D
:1022780088249924F401E401B0E49F93AA279A15CD
:102288008B049C04ED05FE05CF05D007A10798F443
:10229800AD2FDC2FCF2FFE2FE92D982C892E982FCC
:1022A800872F762F652F542F432F322F2227B85090
:1022B80031F7BF9127C01B2EBF91BB27220F331FB9
:1022C800441F551F661F771F881F991F881C991C5C
:1022D800EE1FFF1FCC1FDD1FAA1FBB1F8A149B0404
:1022E800EC05FD05CE05DF05A007B10748F08A1803
:1022F8009B08EC09FD09CE09DF09A00BB10B216091
:102308001A94E1F62EF49401AF01BE01CD01000C40
:02231800089526
:10231A0080910D018130A1F040F1823019F08330B3
:10232A0091F108950E941116811141C081E08093B4
:10233A000D0180ED97E090930101809300010895CB
:10234A000E941116813041F482E080930D011092AF
:10235A0001011092000108958091000190910101FC
:10236A00892B29F510920D0108950E9411168130CA
:10237A00F1F483E080930D0180ED97E090930101E1
:10238A008093000108950E941116811107C01092CE
:10239A000D0110920101109200010895809100012F
:1023AA0090910101892B19F482E080930D0108951F
:1023BA0068E270E080E090E00E94D0140E94D2159A
:1023CA000E94E01583E00E94171665E070E080E045
:1023DA0090E00E94D01483E00E94171666E970E02C
:1023EA0080E090E00E94531483E00E94171666E989
:1023FA0070E080E090E00E94531482E00E94171679
:10240A0066E970E080E090E00E94531488E20E943E
:10241A00371688E00E9437160E943F1686E00E940F
:0A242A0037168CE00E943716089563
:10243400E89409C097FB3EF490958095709561955A
:102444007F4F8F4F9F4F9923A9F0F92F96E9BB2710
:102454009395F695879577956795B795F111F8CF8C
:10246400FAF4BB0F11F460FF1BC06F5F7F4F8F4FF7
:102474009F4F16C0882311F096E911C0772321F0ED
:102484009EE8872F762F05C0662371F096E8862F85
:1024940070E060E02AF09A95660F771F881FDAF7DC
:0A24A400880F9695879597F9089523
:1024AE00CF92DF92EF92FF920F931F936B017C01FD
:1024BE00CA01B90122E02093C00028E12093C10097
:1024CE0026E02093C20097018601000F111F221FE4
:1024DE00331F000F111F221F331FA9019801220F56
:1024EE00331F441F551F0E94A813215031093093EA
:1024FE00C5002093C4001F910F91FF90EF90DF90C5
:04250E00CF900895CD
:10251200CF92DF92EF92DC0180E090E01CC0BC0120
:10252200660F771F880F991F880F991F880F991FB1
:10253200860F971F6901E42E5FEFC51AD50AE50AD7
:10254200CD92DD92EC921297F901249147FD208100
:10255200820F911DC0972D913D914C911297F901D7
:10256200549147FD508150535A30C8F2EF90DF909A
:04257200CF90089569
:102576001F920F920FB60F9211248F939F93AF93D2
:10258600BF938091090190910A01A0910B01B0912E
:102596000C010196A11DB11D8093090190930A01BA
:1025A600A0930B01B0930C01809100019091010161
:1025B600009729F001979093010180930001BF9144
:1025C600AF919F918F910F900FBE0F901F9018950E
:1025D6000E948E1388F09F5798F0B92F9927B7510C
:1025E600B0F0E1F0660F771F881F991F1AF0BA95B1
:1025F600C9F714C0B13091F00E940A16B1E00895EF
:102606000C940A16672F782F8827B85F39F0B93FE0
:10261600CCF3869577956795B395D9F73EF4909563
:0E2626008095709561957F4F8F4F9F4F08955F
:102634009FB7F8941092090110920A0110920B01AD
:1026440010920C0110928000E1E8F0E010821092E8
:102654008500109284008081886080832CE730E0BC
:102664003093890020938800AFE6B0E08C918260BB
:0C2674008C938081836080839FBF089559
:10268000990F0008550FAA0BE0E8FEEF1616170683
:10269000E807F907C0F012161306E407F50798F0EB
:1026A000621B730B840B950B39F40A2661F0232B04
:1026B000242B252B21F408950A2609F4A140A69580
:0826C0008FEF811D811D0895BB
:1026C800CF93DF93C82FD62F662319F00E94CB151E
:1026D80002C00E94D2158C2F82958F700E94171607
:1026E8008C2F8F700E941716D11109C0C150C230AB
:1026F80030F462E070E080E090E00E94D014DF9156
:04270800CF910895D0
:10270C0057FD9058440F551F59F05F3F71F0479596
:10271C00880F97FB991F61F09F3F79F0879508957B
:10272C00121613061406551FF2CF4695F1DF08C09A
:10273C00161617061806991FF1CF869571056105B7
:04274C000894089550
:10275000A1E21A2EAA1BBB1BFD010DC0AA1FBB1FA5
:10276000EE1FFF1FA217B307E407F50720F0A21B17
:10277000B30BE40BF50B661F771F881F991F1A9484
:1027800069F760957095809590959B01AC01BD01AE
:04279000CF010895D8
:10279400EF92FF920F931F93CF93DF930F92CDB7D6
:1027A400DEB7FE013A960191119121917F014FEF1D
:1027B4005FEFBE016F5F7F4F83E496E10E940301E8
:1027C4000F90DF91CF911F910F91FF90EF9008959B
:1027D40097FB10F8169400080F93083098F00850EF
:1027E400232F342F452F562F672F782F892F902D85
:1027F400F4CF059497958795779567955795479561
:0C280400379527950A95AAF70F910895C3
:1028100081B1876F81B982B18E7F82B982B18D7F9C
:1028200082B982B18B7F82B982B18F7E82B982B147
:102830008F7D82B982B18F7B82B982B18F7782B965
:022840000895F9
:10284200CF92DF92EF926B01E82E672B682B39F45F
:102852000CC09FEFC91AD90AE90A0E945516F6015F
:102862008491E7FC80818111F4CFEF90DF90CF90CB
:022872000895C7
:102874000F93083090F0982F872F762F652F542FC1
:10288400432F322F22270850F4CF220F331F441F27
:10289400551F661F771F881F991F0A95B2F70F915E
:0228A400089595
:1028A6000F931F9307C0815001C084E68111FBCFAF
:1028B600C901B8018B019C01015011092109310997
:0E28C600672B682B692B89F71F910F910895DE
:1028D400CF93C82F0E94BC1580ED0E9495158C2FB4
:1028E4000E9495150E94BC1581ED0E9495150E94C9
:0E28F400A915C82F0E9433168C2FCF9108957E
:10290200CF93DF93D82FC62F0E94BC1580ED0E9473
:1029120095158D2F0E9495158C2F0E9495150E945A
:082922003316DF91CF910895F7
:10292A0097FB072E16F4009407D077FD09D00E9472
:10293A00A91407FC05D03EF4909581959F4F089500
:08294A00709561957F4F08951F
:10295200AA1BBB1B51E107C0AA1FBB1FA617B707C3
:1029620010F0A61BB70B881F991F5A95A9F78095DF
:082972009095BC01CD01089510
:10297A009DEC899F912D112496959695969520E127
:10298A00929FA0011124990F292F220F220F920F33
:06299A00891B842B089547
:1029A0000F931F9302C0C901B8018B019C01015014
:1029B000110921093109672B682B692BA1F71F9198
:0429C0000F910895D6
:1029C4000E94D91561E070E080E090E00E94531409
:1029D4000E94E01562E370E080E090E00E945314EE
:0229E400089554
:1029E600092E0394000C11F4882352F0BB0F40F417
:1029F600BF2B11F460FF04C06F5F7F4F8F4F9F4F57
:022A0600089531
:102A08006095709580959095309540955095219555
:102A18003F4F4F4F5F4F6F4F7F4F8F4F9F4F0895DF
:102A2800CF93DF93EC010E9460150E943015BE0120
:0C2A380080E80E94B00EDF91CF9108955D
:102A4400689401C0E8948F929F92CF93DF930E9481
:0C2A54003C11DF91CF919F908F9008956E
:102A600080E00E946A14682F6F7780E00E948114D2
:0A2A700060E087E00E9481140895E1
:102A7A0057FD05C06591759185919591089561916C
:082A8A00719181919191089571
:102A92000024A7FD00942A17300540055005600563
:082AA200700580059005089500
:102AAA0020E032E14AE750E060E875E280E090E039
:062ABA000E94571208956E
:102AC00082E08093B8001092B9008093BA0084E04D
:062AD0008093BC00089594
:102AD600982F92959F70990F292F220F220F920FF0
:062AE6008F70890F0895B6
:102AEC00EC010E9461160E946016CE010E946216D3
:062AFC00CE010E945D16F0
:102B020080910D01882321F0833011F081E0089536
:042B120080E00895C2
:102B160092B19D7F92B992B19F708295807F892BE9
:042B260082B90895D3
:102B2A008093BB0084E88093BC008091BC0088231A
:042B3A00E4F708951F
:102B3E0084EC8093BC008091BC008823E4F78091E4
:042B4E00BB0008952B
:102B520084E88093BC008091BC008823E4F78091D4
:042B6200BB00089517
:102B6600803108F08FE06111805C80680E94371622
:022B76000895C0
:102B780084EA8093BC008091BC008823E4F7089520
:0E2B880087B18F7787B988B1806888B90895C2
:0E2B960082B18D7F82B982B1816082B90895CB
:0E2BA40082B18D7F82B982B18E7F82B9089591
:0E2BB20082B18D7F82B982B1846082B90895AC
:0E2BC00082B18D7F82B982B18B7F82B9089578
:0E2BCE009091C00095FFFCCF8093C600089543
:0E2BDC005058BB27AA270E9478100C94F314BF
:0E2BEA000E94EB126894B1110C940B16089522
:0E2BF80000240A9416161706180609060895FA
:0E2C060000240A9412161306140605060895FB
:0E2C1400E894BB2766277727CB0197F9089530
:0C2C2200379902C080E0089581E0089519
:0C2C2E008F700E948B150E94E214089524
:0C2C3A0097F99F6780E870E060E0089563
:0C2C4600EE0FFF1F0590F491E02D0994A3
:0A2C52000E94401308F481E0089589
:0A2C5C000E94401308F48FEF089562
:082C660084E98093BC0008958D
:082C6E0060E00E946413089568
:082C760061E00E94641308955F
:082C7E0081E00E943716089561
:082C860081110E94521608950D
:082C8E000E94380F0C94F314AE
:082C96000E94A70F0C94F31437
:062C9E000E94DF10089502
:062CA4000E94E7150895EF
:062CAA000E943B16089594
:062CB0009FEF80EC089587
:042CB6000C9400007A
:042CBA000E94C600AE
:022CBE00089577
:022CC000089575
:022CC200089573
:022CC400089571
:072CC600001E1504140B1998
:00000001FF
